:08000000660704000000000087
:100200000400270044158800A222EF000408200003
:1002100024158800040E280004158800000006003C
:10022000E4002000240C880064002000540C8800A6
:10023000E4002000840C8800E4002000B40C880056
:100240001021EF00B45D20006408880004002A003B
:10025000840888001221EF00B45D20007408880033
:1002600004002A00940888008021EF008621EF0016
:100270008C21EF009221EF00000006000000E0005A
:100280004220AF00060037002133090000000000C3
:10029000FF3F0900000000000000E900F7FF370001
:1002A00000000600851F7800844380006020E10084
:1002B0000B003D008443800053A22F000418E1008E
:1002C0000200340054A22F00844388008021EF00F4
:1002D000040020008343800083025200350C880014
:1002E000844380006020E1000900350084438000E1
:1002F000B35D20000418E10002003D00B45D200061
:10030000844388007008F8008001F9008621EF001E
:10031000944380006020E1000B003D009443800086
:1003200053A22F000418E1000200340054A22F0051
:10033000944388000400200093438000830252000D
:10034000650C88009221EF00944380006020E1005A
:100350000900350094438000B35D20000418E100DB
:1003600002003D00B45D2000944388008C21EF0022
:100370007208F8009201F900CF0278000000060030
:10038000851F780094002000341588008443800085
:10039000640242000400780080027800A002A900F4
:1003A000A022A800A002AE00FEFF370004148000C7
:1003B00084029800910009000000000074002000F1
:1003C00034158800844380006602420004007800EF
:1003D00080027800A002A900A022A800A002AE001E
:1003E000FEFF370004148000840298009100090089
:1003F0000000000054002000341588008443800071
:10040000680242000400780080027800A002A9007F
:10041000A022A800A002AE00FEFF37000414800056
:1004200084029800910009000000000034002000C0
:1004300034158800844380006A024200040078007A
:1004400080027800A002A900A022A800A002AE00AD
:10045000FEFF370004148000840298009100090018
:100460000000000014002000341588008443800040
:100470006C0242000400780080027800A002A9000B
:10048000A022A800A002AE00FEFF370004148000E6
:10049000840298009100090000000000A622EF00ED
:1004A000844380006E0242000400780080027800DD
:1004B000A002A900A022A800A002AE00FEFF370003
:1004C00004148000840298009100090000000000DC
:1004D000240020003415880084438000700242000C
:1004E0000400780080027800A002A900A022A800E1
:1004F000A002AE00FEFF37000414800084029800C2
:10050000910009000000000044002000341588001C
:100510008443800072024200040078008002780068
:10052000A002A900A022A800A002AE00FEFF370092
:10053000041480008402980091000900000000006B
:100540006400200034158800844380007402420057
:100550000400780080027800A002A900A022A80070
:10056000A002AE00FEFF3700041480008402980051
:10057000910009000000000084002000341588006C
:1005800084438000760242000400780080027800F4
:10059000A002A900A022A800A002AE00FEFF370022
:1005A00004148000840298009100090000000000FB
:1005B000A4002000341588008443800078024200A3
:1005C0000400780080027800A002A900A022A80000
:1005D000A002AE00FEFF37000414800084029800E1
:1005E0009100090000000000CF0278000000060022
:1005F000851F78007A28EF007608F8007A08F9005D
:10060000D0438000C44380000020E100200035007A
:10061000D44380006220B80084438000040040007E
:1006200090027800A44380000520E10007003D000F
:10063000D44380006220B80094438000040040004E
:10064000800278000400200084029800D4438000D7
:100650006220B800844380000400400090027800CB
:10066000A44380000520E10007003500D44380004A
:100670006220B800944380000400400080027800AB
:1006800014002000840298007A28EC00DCFF370078
:10069000CF02780000000600851F78007828EF0060
:1006A0007A28EF007C28EF007E28EF008028EF00FA
:1006B0007208F8007808F900C0438000A443800065
:1006C0000020E10022003500C44380006220B80011
:1006D0008443800004004000900278006128E1001B
:1006E00009003A00C443800061024200840278009D
:1006F000050278006220B8008028B400F44380002E
:1007000061024200F4438800C44380006220B800C4
:100710008443800004004000900278000500E0005F
:1007200009003A00C443800061024200840278005C
:10073000050278006220B8007C28B400D443800011
:1007400061024200D44388007828EC00DAFF3700C9
:10075000F44380006B20E10018003200D443800095
:100760006B20E10015003200F0438000D44380008C
:100770000020E10006003400B543800004448000FE
:10078000F3438000110009000302D800800A7800BA
:10079000D0438000F44380000020E10006003400D4
:1007A000B5438000E4438000D3438000110009007A
:1007B0000302D800800A780003003700B5438000A8
:1007C000F4FF2F0084029800CF027800000006009A
:1007D000844380007020E10007003D0084438000D6
:1007E0006020E10004003500D2A2A900D6A2A90031
:1007F000D282A900D682A800844380007020E10044
:1008000004003400D2A2A900D6A2A800D282A90076
:10081000D682A900844380007020E10004003A00E1
:10082000D2A2A900D6A2A900D282A900D682A9008C
:1008300000000600851F7800861F7800E108200070
:100840000600A10000F0A600030037000600A0008B
:100850000000EA00000037000000E0001400320051
:1008600000F0A700040037004200A9000080D20079
:100870008100E900FAFF37000180FD004200A90075
:100880008180D30000F0A1000080FD00814068005D
:100890000040B2000600A70001F0A00007003700EA
:1008A000014078000170A0000140B2000300370051
:1008B0000000EB008000EB00000037004F037800E1
:1008C000CF02780000000600851F7800C5002000D8
:1008D00003000900B51F78008004EB000800280021
:1008E0004300AF0083016C00010578008A85690030
:1008F0000103780083037800030678004220A900F2
:100900004200A9000683D2000680FD00F60FB20067
:100910000600E000A10032004220A9004200A90028
:100920008783D2000780FD00F70FB2000700E000C8
:100930009F0032004220A9004200A9000638E100D1
:100940009C003200A30033000900A1000910A000A0
:100950000684530007037800F10FB2000170A00075
:10096000F30FB2000370A000870220000838E100F6
:10097000110033004220A9004200A9008180D30069
:100980000080D3000804E900FAFF3A000D003700A8
:10099000870220000838E100090033004220A90046
:1009A0004200A9008381D3000281D3000804E9003A
:1009B000FAFF3A000F003700020078008300780049
:1009C000430037000BF0A600110037000940A700D4
:1009D0008C0578000000EA000200320081C0EA00C5
:1009E000010037008100EA000940A7002B00370012
:1009F000070037000BF0A600050037000201EA00EF
:100A00000200320083C1EA00010037008301EA00DE
:100A1000F50FB2004220A9004200A90002004000E8
:100A200083C048004200AF000930A0000900A700C1
:100A3000090037000910A700010037000B0037003C
:100A40000BF0A700150037000930A7002900370078
:100A50000960A0001E0037000BF0A7000F00370050
:100A60000930A70023003700190037000920A10032
:100A70000BF0A700040037008A0578000930A700B2
:100A80001C003700360037000940A00001C8B20042
:100A90000170A700CDFF37008A057800F10FB20082
:100AA000810370000A0032000170A70008003700BF
:100AB0004220A9004200A9000080D2008180D2001B
:100AC0000603E9004220AF0031003700F6FF37008F
:100AD0000900A7008A0578000910A7008C05780096
:100AE0000950A6001A0037000AF0A7000080A000F5
:100AF0001B0037004200A80081C0D3000080D30053
:100B00004200AF000950A0000603E80020003200B8
:100B10000950A600080037000000E80006003A006F
:100B20008140E80004003A0081C0D3000080D30077
:100B30000603E800160032000900A7008A057800C5
:100B40000910A7008C0578004220AF001000370084
:100B50000960A7008A0578000970A7008C05780055
:100B600001017000230032000170A1000680FD0029
:100B70004220A9004200A9000683D30081006B0037
:100B800001F0A0000BF0A60001F0A1001900370051
:100B90000000200001002000160037000AF0A70026
:100BA00083016C0002007800830078001100370098
:100BB00010003700F30FB2000370A000F10FB20075
:100BC0000170A0000BF0A7000370A1000920A00095
:100BD00088FF370007045300F10FB2000170A00036
:100BE000F30FB2000370A0000910A1000900A000DB
:100BF00067FF37002501200003000900CF127800AD
:100C0000CF02780000000600851F7800861F78005C
:100C1000871F78000382680004F0A60006003700F2
:100C20004200A9004220A90001F0A60026003700DA
:100C30004200A800240037000102780080027800FA
:100C400003037800820378008180D2000180FD00D8
:100C50008381D2000380FD0081C051000500320075
:100C600004F0A600180037001000200042E0B60093
:100C70001500370084407800864178000170A1009B
:100C80000370A10081C051000500320004F0A600ED
:100C90000D0037001000200042E0B6000A003700C7
:100CA000858053000500320004F0A60006003700DE
:100CB0001000200042E0B600030037004200A90007
:100CC0000100370000003700CF0378004F037800A1
:100CD000CF02780000000600851F7800C5002000C4
:100CE00004000900B51F7800000278008102780036
:100CF00083037800020378004200A9004220A90083
:100D00008180D2000180FD00F10FB2000100E000FF
:100D1000480032004200A9004220A9008381D2008D
:100D20000380FD00F30FB2000300E0004100320039
:100D30000080FB0001C0410004003100F007B10059
:100D40003C0032003B003900020037001048B00080
:100D50003800310007856A004200A9004220A9003E
:100D6000F50FB2000570A0004200A900F70FB20015
:100D70000770A0000621B800062CB80083014C00C3
:100D800089007800043CB80083014C0081804C004D
:100D9000072CB80081004C000000E8000100E000D2
:100DA0004220AF0001003700030037000300E000DD
:100DB0004220AF000500370001F0A7000300370014
:100DC0008381D2008180D2000000E9000101780017
:100DD0004200A9000370A6000900370007F02F00A9
:100DE000878161000310B000600149000200E0004B
:100DF00003003A000300E00001003A000000E800B0
:100E00000080FD004200A9004220A9008080D3009C
:100E10000AF0A70001F0A00002F0A1000280FD008E
:100E2000814069000380FD000341780002007800E2
:100E30000300370000002000010020000000370000
:100E40004501200004000900CF127800CF0278008D
:100E50000000060000017800810178000140780060
:100E60000080FD0000F0A0008180D2000180FD0024
:100E70008180FB00E408200081405200060032001F
:100E80000000E000040032004200A9000080D3000E
:100E90008100E900FAFF3A0003F0A60002003700E3
:100EA0000000EA0000003700000006000000E0003B
:100EB0004220AF00040037001600090000000000C7
:100EC0000000E900F9FF37000000060081E0A800FB
:100ED000A42D2000F44088002028EF00C42B20001F
:100EE0000442880004012000344288005228EF00A8
:100EF0005428EF005628EF00143E2400C442880016
:100F00005A28EF00C4282400E44288005E28EF003D
:100F10000410240004438800F40F200014438800C8
:100F20006428EF0004E82300344388006828EF00B9
:100F3000A8A2EF000FF82000F0FF200020A0B700CB
:100F4000000000006A28EF0000010200000000001D
:100F5000B45D2000844388001001020000000000FE
:100F600004002800040E8800CA61EF00D0E1A80048
:100F7000C1002000020E80007C01610082807000B0
:100F8000C001F800E1FF9F00C001F900F4702200E9
:100F9000240E8800B1BB2F00420E800003442000C5
:100FA0000101610003017100C801F800E2FF9F0028
:100FB000C801F900F1FC2E00A20E80000300200001
:100FC0000101610003017100D401F800E2FF9F00FC
:100FD000D401F900B1FF2C00820E80000300200034
:100FE0000101610003017100D001F800E2FF9F00E0
:100FF000D001F90000CCB300CCE1B700D201A900C8
:10100000D001A900E4382000D40E880000FA2000A6
:101010003E01020000000000941A2000D40E880057
:101020007028EF007228EF0052010200000000005B
:10103000D502AF0006003700D2A2A900D6A2AA00AE
:10104000A00F20003E01020000000000F8FF370062
:1010500004642000D40E8800D2A2A900D6A2A80061
:10106000007D20003E010200000000006208E20056
:10107000C40032000480200084438800C0010200C4
:10108000000000007628EF00E4002000C443880040
:101090000480200084438800248220009443880038
:1010A0001E08F8007408F900F802020000000000B1
:1010B0002400200094438800C4002000A44388003A
:1010C000248220008443880084842000B443880064
:1010D0004C030200000000003042800044428000C7
:1010E0000020E100050034004442800033428000CB
:1010F0000300520000418800080037004042800091
:10110000344280000020E1000400350034428000B9
:1011100043428000030052000041880044428000A6
:10112000F3FF2F000418E1000300320004418000A7
:101130007020E100020034004608F8004808F90079
:101140004808F8007008F900E803020000000000F9
:101150004808F8004608F9000401200043428000D6
:1011600003005200604288006442800053428000C5
:101170000300520070428800644280006420E10055
:1011800004003C0064428000C3FF2F000418E1000B
:101190000D003400604280001A04020000000000CC
:1011A0004300A9000001780081017800904280008E
:1011B000A142800064040200000000009042880008
:1011C000A1428800020037005228EF005428EF00A7
:1011D00000002000012F240092428000A3428000E2
:1011E0000406020000000000030039005228EF004E
:1011F000842C2400A442880090428000A1428000F8
:101200000200200003F82B006C0602000000000022
:10121000800278000103780000002000012F2400E4
:101220000501780086017800040602000000000035
:10123000030039005228EF00842C2C00A4428800BF
:1012400065428000050078001A04020000000000DA
:10125000D2428000E34280006C06020000000000E1
:101260008002780001037800774280000700780050
:101270001A04020000000000B2428000C342800055
:101280006C060200000000004300A9000001780085
:10129000810178000500780086007800640402006F
:1012A0000000000080027800010378009042800076
:1012B000A1428000F2428000034380006C060200DD
:1012C000000000004300A9000001780081017800BF
:1012D0000500780086007800640402000000000029
:1012E0002A07020000000000804288004C08F80035
:1012F0004A08F900444280006E20E1000D003400ED
:10130000444280007220E1000A003D004443800016
:101310006E20E10007003D006828EC004443800097
:101320006420E10002003400044B200004428800E5
:10133000030037006828EF000432200004428800D0
:101340000442800083428000030052001042880063
:10135000004280005008B400204288004208F80093
:101360007008F9004408F8007208F9005201020000
:10137000000000003043800056070200000000001B
:0C1380003AFF370026FF37000040FE0057
:0200000401F009
:1000000003C700003F000000338700000F310000ED
:0C0010000F3300000700000003C00000D8
:00000001FF
;DSPIC30F5015
;CRC=B116  CREATED="18-Nov-15 21:29"
